S017000041574D2D6E616E6F2D6D61737465722E7372656396
S113000033C000004DC000004BC0000049C00000D8
S113001047C0000045C0000094C5000041C0000076
S11300203FC000003DC000003BC0000039C00000DC
S113003037C0000035C0000033C0000031C00000EC
S11300402FC000002DC000002BC0000029C00000FC
S113005027C0000025C0000023C0000021C000000C
S11300601FC000001DC0000011241FBECFEFD8E048
S1130070DEBFCDBF12E0A0E0B1E0EEEBF1E102C0E3
S113008005900D92A830B107D9F722E0A8E0B2E0BC
S113009001C01D92AA32B207E1F77FD40C94DD08A7
S11300A0AFCF209A529A08951F93CF93DF93CDB781
S11300B0DEB728970FB6F894DEBF0FBECDBF182F5A
S11300C023E031E04FEF68E071E081E047D488E05D
S11300D0EBE2F1E0DE01119601900D928A95E1F7D1
S11300E09E012F5F3F4F412F6EE071E081E036D4D7
S11300F023E031E04FEF66E171E082E02FD42896EF
S11301000FB6F894DEBF0FBECDBFDF91CF911F9124
S11301100895893120F481E0809329020895823979
S113012010F0109229020895813920F481E080931F
S113013028020895823910F0109228020895CF936E
S1130140C62F873491F00CD423E031E04FEF63E302
S113015071E081E003D423E031E04FEF68E471E023
S113016082E0FCD31092290211C02DE531E06FE545
S113017071E083E0F3D3C93B08F0C8EB88EB8C1B38
S1130180C82F92DF8C2FC5DF8C2FCEDFCF9108953F
S113019080912902813011F4289A0895811101C0B7
S11301A02898089580912802813011F45A9A08956C
S11301B0811101C05A980895813079F445E2649F11
S11301C0412D1124641B6695460F469546952FE6EE
S11301D031E068E771E084E0C1C30895811117C07C
S11301E0BFD323E031E04FEF61E871E081E0B6D3A3
S11301F023E031E04FEF66E971E082E0AFD323E022
S113020031E04FEF6AEA71E083E0A8C3089523E088
S113021031E04FEF61E871E084E0A0C308958111FB
S113022009C09ED323E031E04FEF63EB71E081E03E
S113023095C3089523E031E04FEF63EB71E084E070
S11302408DC3089584B18E6284B924988CB5806579
S11302508CBD2A9A299808958EBD0DB407FEFDCF52
S11302608EB5089595E39A95F1F700002A9890E4E5
S11302709A95F1F7F1DF80E48A95F1F78FEFECDFDF
S113028090E49A95F1F72A9A089585E38A95F1F70F
S113029000002A9885E38A95F1F7000087E2DCDF05
S11302A085E38A95F1F7000080E7D6DF85E38A9538
S11302B0F1F700002A9A0895BF92CF92DF92EF924D
S11302C0FF920F931F93CF93DF93D82EC62EB42E95
S11302D0F52EE22E81E0D81202C090E2C90EE5E3C9
S11302E0EA95F1F700002A98F0E4FA95F1F78C2DDD
S11302F0B3DF85E38A95F1F70000EE2021F1C8E031
S1130300D2E00B2D1F2D2E2D30E0F901E85FFD4FBB
S11303107F01D1100BC0F0EACF1641F08FEF9CDFC4
S1130320888385E38A95F1F7000007C0F80180818E
S113033093DFF5E3FA95F1F7000021960F5F1F4F65
S1130340CE15DF0531F72A9A88E092E0DF91CF914C
S11303501F910F91FF90EF90DF90CF90BF90089581
S11303601F93CF93DF9300D000D01F92CDB7DEB799
S11303708FE39CE90197F1F700C0000080E78983CF
S113038021E0AE014F5F5F4F60E081E095DF11E057
S1130390198321E0AE014F5F5F4F61E081E08CDFA4
S11303A0198321E0AE014F5F5F4F62E081E084DF9B
S11303B083E0898321E0AE014F5F5F4F63E081E01A
S11303C07BDF8FE2898321E0AE014F5F5F4F64E002
S11303D081E072DF8AE7898321E0AE014F5F5F4FDE
S11303E065E081E069DF86E2898321E0AE014F5F49
S11303F05F4F66E081E060DF82E189838A838B83DB
S11304008C838D8325E0AE014F5F5F4F6AE081E00E
S113041053DF25E0AE014F5F5F4F60E181E04CDFC9
S113042085E0898321E0AE014F5F5F4F61E181E0A8
S113043043DF0F900F900F900F900F90DF91CF91AB
S11304401F910895CF93DF931F92CDB7DEB72FEF9F
S113045083EC99E0215080409040E1F700C0000017
S11304608FE1898321E0AE014F5F5F4F60E081E05F
S113047023DF2FEF83EC99E0215080409040E1F797
S113048000C000000F90DF91CF910895CF93DF93C8
S11304901F92CDB7DEB78FE39CE90197F1F700C057
S11304A00000198221E0AE014F5F5F4F60E081E000
S11304B003DF8FE39CE90197F1F700C000000F9080
S11304C0DF91CF9108958FE39CE90197F1F700C084
S11304D00000299A9FEF27EA81E69150204080404E
S11304E0E1F700C0000029988FE39CE90197F1F738
S11304F000C000000895F89484B7877F84BFE0E6C5
S1130500F0E080818861808381E2808378948081B7
S113051080648083089583B7817F846083BF83B7B9
S1130520816083BF83B7816083BF889583B78E7FE3
S113053083BF83B78E7F83BFE4E6F0E08081807160
S113054080830895D8DFE7CF08958AB1806F8AB990
S11305508AB18B608AB9209A0895CF93DF9300D033
S113056000D0CDB7DEB719821A821B821C82FE012D
S1130570319627E030E090E061E0AC01022E02C049
S1130580559547950A94E2F740FD6083215031095F
S113059031962330310589F78BB18F708BB92BB12C
S11305A0498130E8439FC00111249A8130E4939F2C
S11305B0A0011124482B422B9B8180E2989F90013B
S11305C01124242B9C8130E1939FC0011124822BA0
S11305D08BB95B9A85E08A95F1F700005B9835E06A
S11305E03A95F1F700000F900F900F900F90DF9164
S11305F0CF910895CF93C82F5898599A5B98ADDF3F
S11306008C2F8295807FA9DFCF910895CF93C82F37
S1130610589859985B98A1DF8C2F8295807F9DDF35
S1130620CF91089557985998589A5B9A85E08A957E
S1130630F1F7000089B15B9895E09A95F1F7000015
S11306405B9A95E09A95F1F700005B9895E09A958E
S1130650F1F7000088234CF35898579A08952FEF28
S113066081EE94E0215080409040E1F700C000000A
S113067059985B98589880E370DF25E32A95F1F741
S1130680000080E36ADF8FE193E00197F1F700C097
S1130690000080E362DF8FE391E00197F1F700C08F
S11306A0000088E25ADFBEDF88E2B0DFBBDF88E00B
S11306B0ADDFB8DF81E0AADFB5DF86E0A7DFB2DF18
S11306C08CE0A4CF089541DFCADF2FEF81EE94E0E0
S11306D0215080409040E1F700C0000008950F933E
S11306E01F93CF93DF9300D0CDB7DEB78C011A826E
S11306F01982E981FA81E80FF91F8081882399F032
S113070091DFE981FA81E00FF11F808173DF898134
S11307109A8101969A838983E981FA81E00FF11F16
S113072080818111EDCF0F900F90DF91CF911F91B8
S11307300F910895DF92EF92FF920F931F93CF933F
S1130740DF93CDB7DEB7AF970FB6F894DEBF0FBE19
S1130750CDBF182FD62E072F842F790120E230E247
S11307603A83298320E230E03C832B8396E1E1ED58
S1130770F1E0DE015A9601900D929A95E1F74F3F10
S113078031F04AE0BE016F5F7F4F90E0FDD163E03E
S113079071E08D2D902FEFD1892B09F4ACC063E06B
S11307A071E0C701E8D1892B31F40F2EF6EEEF2E5C
S11307B0F1E0FF2EF02DCE014A969F938F93FF9286
S11307C0EF9249979F938F930F93DF9288EC91E078
S11307D09F938F931F9285E18F93CE0105969F93EC
S11307E08F93F5D168E071E08D2D902FC4D10FB6B1
S11307F0F894DEBF0FBECDBF892BA9F4CE014A9673
S11308009F938F938EEC91E09F938F931F9285E13A
S11308108F93CE0105969F938F93D9D10FB6F894F9
S1130820DEBF0FBECDBF1230A9F018F4113031F085
S113083034C01330D9F0143029F12FC080E8E6DE3B
S11308409FEF20E732E0915020403040E1F700C0B4
S1130850000023C080ECDADE8FEF90E722E08150C5
S113086090402040E1F700C0000017C084E9CEDECC
S11308703FEF80E792E0315080409040E1F700C0C4
S113088000000BC084EDC2DE2FEF30E782E0215080
S113089030408040E1F700C00000CE0105961FDF24
S11308A09FEF20E732E0915020403040E1F700C054
S11308B0000046C0CE014A969F938F9386EE91E046
S11308C09F938F939E012F5F3F4F3F932F939F934F
S11308D08F9388EC91E09F938F931F9285E18F9380
S11308E0CE0105969F938F9372D10FB6F894DEBF15
S11308F00FBECDBF98CF63E071E0C7013CD1892B17
S1130900C9F2CE014A969F938F93FF92EF92499733
S11309109F938F9386EE91E09F938F9388EC91E061
S11309209F938F931F9285E18F93CE0105969F939A
S11309308F934DD10FB6F894DEBF0FBECDBF73CFEA
S1130940AF960FB6F894DEBF0FBECDBFDF91CF9147
S11309501F910F91FF90EF90DF900895EBCE0895D3
S113096023E031E04FEF68E071E081E0E3DE23E073
S113097031E04FEF68E071E082E0DCDE23E031E05B
S11309804FEF68E071E083E0D5DE23E031E04FEF24
S113099068E071E084E0CECE0895DF92EF92FF929A
S11309A00F931F93CF93DF938EDE2DE531E040E06C
S11309B067EE71E081E0D2DF2DE531E040E066E1F1
S11309C071E082E0CBDF2FEF84E39CE02150804094
S11309D09040E1F700C0000023E031E04FEF66EF04
S11309E071E083E0BBDFEFEFF4E32CE0E150F04093
S11309F02040E1F700C0000025DC2DE531E041E2B4
S1130A0067EE71E081E0AADF8FEF94E3ECE08150C0
S1130A109040E040E1F700C00000A2DC2DE531E0A9
S1130A2043E467EE71E081E099DFFFEF24E38CE0BB
S1130A30F15020408040E1F700C0000032DB2DE59A
S1130A4031E044E667EE71E081E088DF9FEFE9E69C
S1130A50F8E19150E040F040E1F700C000008091DF
S1130A60010190910201019709F061C0F12CC0E0ED
S1130A70D1E00F2EF8E1DF2EF02DEE24E3948091E7
S1130A8000018F5F809300018E3110F4CF5F30C07E
S1130A90D9DC8F2DA3DB2FEF83ED90E32150804031
S1130AA09040E1F700C00000F0DB0DDDC4E618C0A3
S1130AB0EFEFF3ED20E3E150F0402040E1F700C018
S1130AC00000E3DB00DDC15059F48F2DA8DB109248
S1130AD0290210922802DADCD0920001D0E005C08D
S1130AE087E0C0DB86FFE4CF0FC052DB5BDBC0E0F6
S1130AF06C2F8D2F61DB26DD809101019091020125
S1130B00019709F4BCCF13C0C1DCD092000125E0E9
S1130B10A80161E680E0D0DB8C01FC0142816181A7
S1130B2080810DDB10920001DE2DFE2CDECF80E0F3
S1130B3090E0DF91CF911F910F91FF90EF90DF90A4
S1130B4008951F920F920FB60F9211248F939F93C3
S1130B508091010190910201892B31F481E090E0B0
S1130B6090930201809301019F918F910F900FBE8A
S1130B700F901F901895FB01DC018D910190801955
S1130B800110D9F3990B0895BB274A3031F4992306
S1130B9022F4BDE2909581959F4F01C0BB27FB01D4
S1130BA05527AA27880F991FAA1FA41710F0A41B62
S1130BB083955051B9F7A05DAA3308F0A95DA193BC
S1130BC0009779F7B111B1931192CB0115C2AEE040
S1130BD0B0E0ECEEF5E0C8C20D891E898F89988DCE
S1130BE026E02C831A83098397FF02C080E090E8F3
S1130BF001979E838D83AE01455E5F4F698D7A8D2B
S1130C00CE01019611D04D815E8157FD0AC02F811E
S1130C103885421753070CF49A01F801E20FF31FC9
S1130C2010822E96E4E0BCC2ABE0B0E0E9E1F6E06D
S1130C308DC26C017B018A01FC01178216828381BB
S1130C4081FFBFC1CE0101963C01F6019381F701FA
S1130C5093FD859193FF81917F01882309F4ADC1B0
S1130C60853239F493FD859193FF81917F0185321B
S1130C7021F4B60190E0D0D1E8CF912C212C312C75
S1130C80FFE1F315D8F08B3279F038F4803279F043
S1130C908332A1F4232D20611DC08D3261F0803395
S1130CA069F4232D216016C0832D8260382EE32D34
S1130CB0E4603E2E2AC0F32DF8601DC037FC2DC021
S1130CC020ED280F2A3040F08E32B9F436FC75C17D
S1130CD0232D2064322E19C036FE06C08AE0989E69
S1130CE0200D1124922E11C0EAE02E9E200D112415
S1130CF0222EF32DF0623F2E08C08C3621F4832D72
S1130D008068382E02C0883641F4F70193FD85913E
S1130D1093FF81917F018111B3CF982F9F7D9554CB
S1130D20933028F40C5F1F4F9FE399830DC08336E3
S1130D3031F0833771F0833509F055C020C0F801D4
S1130D40808189830E5F1F4F88248394912C5301E3
S1130D5012C02801F2E04F0E511CF801A080B180AE
S1130D6036FE03C0692D70E002C06FEF7FEFC5014E
S1130D7038D14C018201F32DFF773F2E15C0280195
S1130D8022E0420E511CF801A080B18036FE03C05F
S1130D90692D70E002C06FEF7FEFC50117D14C01E0
S1130DA0F32DF0683F2E820133FC19C0822D90E0B0
S1130DB088169906A0F4B60180E290E02DD12A9419
S1130DC0F5CFF50137FC859137FE81915F01B601BE
S1130DD090E022D121102A9421E0821A91088114F2
S1130DE0910479F7E1C0843611F0893639F5F801B8
S1130DF037FE07C060817181828193810C5F1F4F30
S1130E0008C060817181072E000C880B990B0E5F5E
S1130E101F4FF32DFF763F2E97FF09C090958095C5
S1130E20709561957F4F8F4F9F4FF0683F2E2AE05A
S1130E3030E0A3012DD1882E861844C0853731F4C3
S1130E40232D2F7EB22E2AE030E025C0932D997FEA
S1130E50B92E8F36C1F018F4883579F0AEC08037DA
S1130E6019F0883721F0A9C0E92FE061BE2EB4FE45
S1130E700DC0FB2DF460BF2E09C034FE0AC0292F1B
S1130E802660B22E06C028E030E005C020E130E044
S1130E9002C020E132E0F801B7FE07C06081718131
S1130EA0828193810C5F1F4F06C06081718180E055
S1130EB090E00E5F1F4FA301EBD0882E8618FB2D08
S1130EC0FF773F2E36FE0DC0232D2E7FA22E8914D0
S1130ED058F434FE0BC032FC09C0832D8E7EA82E3C
S1130EE005C0B82CA32C03C0B82C01C0B92CA4FE97
S1130EF00FC0FE01E80DF11D8081803321F49A2D8D
S1130F00997EA92E09C0A2FE06C0B394B39404C06E
S1130F108A2D867809F0B394A3FC10C0A0FE06C005
S1130F20B21480F4280C922C9B180DC0B21458F4FF
S1130F30B60180E290E070D0B394F8CFB21418F404
S1130F402B1802C0982C212CA4FE0FC0B60180E3FC
S1130F5090E062D0A2FE16C0A1FC03C088E790E036
S1130F6002C088E590E0B6010CC08A2D867851F065
S1130F70A1FE02C08BE201C080E2A7FC8DE2B601B3
S1130F8090E04AD0891430F4B60180E390E044D074
S1130F909A94F8CF8A94F301E80DF11D8081B6018B
S1130FA090E03AD08110F6CF222009F44ECEB6015B
S1130FB080E290E031D02A94F7CFF60186819781C0
S1130FC002C08FEF9FEF2B96E2E1DCC0FC0105909D
S1130FD0615070400110D8F7809590958E0F9F1F37
S1130FE00895FC016150704001900110D8F780957C
S1130FF090958E0F9F1F0895DC01FC01672F71915E
S11310007723E1F7329704C07C916D9370836291EA
S1131010AE17BF07C8F308950F931F93CF93DF93C1
S1131020FB01238121FD03C08FEF9FEF2CC022FF22
S113103016C046815781248135814217530744F4F1
S1131040A081B1819D012F5F3F4F318320838C9319
S1131050268137812F5F3F4F3783268314C08B014E
S1131060EC01FB010084F185E02D0995892BE1F663
S1131070D80116968D919C911797019617969C937B
S11310808E931697CE01DF91CF911F910F91089502
S1131090FA01AA27283051F1203181F1E8946F93A5
S11310A06E7F6E5F7F4F8F4F9F4FAF4FB1E03ED04B
S11310B0B4E03CD0670F781F891F9A1FA11D680FE9
S11310C0791F8A1F911DA11D6A0F711D811D911D1C
S11310D0A11D20D009F468943F912AE0269F112491
S11310E03019305D3193DEF6CF010895462F4770F5
S11310F0405D4193B3E00FD0C9F7F6CF462F4F7050
S1131100405D4A3318F0495D31FD4052419302D0AD
S1131110A9F7EACFB4E0A695979587957795679553
S1131120BA95C9F700976105710508959B01AC0153
S11311300A2E06945795479537952795BA95C9F77A
S1131140620F731F841F951FA01D08952F923F9255
S11311504F925F926F927F928F929F92AF92BF92C3
S1131160CF92DF92EF92FF920F931F93CF93DF936F
S1131170CDB7DEB7CA1BDB0B0FB6F894DEBF0FBECC
S1131180CDBF09942A88398848885F846E847D8419
S11311908C849B84AA84B984C884DF80EE80FD801B
S11311A00C811B81AA81B981CE0FD11D0FB6F89491
S11111B0DEBF0FBECDBFED010895F894FFCF52
S11311BEC801004E4F4E4500434C454152004C650C
S11311CE76656C3A20002D2D2D2D2D2D2D2D2D2DAA
S11311DE2D2D2D2D2D2D2D2D2D2D002F3136302055
S11311EE636D004F6F70732C20736F6D6574686937
S11311FE6E672077656E740077697468207468650D
S113120E20636F6E6E656374696F6E2E00250042E7
S113121E617474657279204561676C653A200020AB
S113122E6D696E2061676F0055706461746564202A
S113123E004C697374656E696E6720746F20456126
S113124E676C652E2E0054686973206D6179207465
S113125E616B65206120666577006D696E757465D6
S113126E732E004E6F20726573702E2066726F6D32
S113127E204561676C652E002573257325732573D0
S113128E002020202020202020202020202020206C
S113129E20202020202000496E697469616C697ACF
S11312AE696E673A20002020202048656C6C6F2000
S10B12BE666F6C6B73210000E4
S9030000FC
