S016000041574D2D6E616E6F2D736C6176652E7372656308
S113000033C0000063C000004AC0000048C00000C4
S113001046C0000044C000008CC0000040C0000086
S11300203EC000003CC000003AC0000038C00000E0
S113003036C0000034C0000032C0000030C00000F0
S11300402EC000002CC000002AC0000028C0000000
S113005026C0000024C0000022C0000020C0000010
S11300601EC000001CC0000011241FBECFEFD8E04A
S1130070DEBFCDBF11E0A0E0B1E0EAE6F1E002C0EE
S113008005900D92A230B107D9F721E0A2E0B1E0CA
S113009001C01D92A530B207E1F714D064C0B0CFFF
S11300A052985A98539A5B98579A5F980895E89A89
S11300B0E9E6F0E080818160808378940895F0DF40
S11300C0F6CF0895FCDF80E090E008951F920F9230
S11300D00FB60F9211248F939F93EF93FF93809108
S11300E00201882319F0813051F01AC081E0809315
S11300F00201E1E8F0E080818260808311C0109207
S11301000201E1E8F0E080818D7F8083E4E8F0E0A3
S11301108081918190930401809303011182108264
S1130120FF91EF919F918F910F900FBE0F901F90B1
S113013018951F920F920FB60F9211248F939F93CD
S11301408091000190910101892B31F481E090E0CC
S113015090930101809300019F918F910F900FBEA6
S10D01600F901F901895F894FFCF3C
S105016A01008E
S9030000FC
