S016000041574D2D6E616E6F2D736C6176652E7372656308
S113000033C0000028C200004AC0000048C00000FD
S113001046C0000044C0000051C2000040C00000BF
S11300203EC000003CC000003AC0000038C00000E0
S113003036C0000034C0000032C0000030C00000F0
S11300402EC000002CC000002AC0000028C0000000
S113005026C0000024C0000022C0000020C0000010
S11300601EC000001CC0000011241FBECFEFD8E04A
S1130070DEBFCDBF11E0A0E0B1E0E8ECF8E002C0E3
S113008005900D92A430B107D9F721E0A4E0B1E0C6
S113009001C01D92AC32B207E1F77DD113C4B0CFD9
S11300A08EBD0DB407FEFDCF8EB5089595E39A95E8
S11300B0F1F700002A9890E49A95F1F7F1DF80E4D3
S11300C08A95F1F78FEFECDF90E49A95F1F72A9A8D
S11300D0089585E38A95F1F700002A9885E38A95C7
S11300E0F1F7000087E2DCDF85E38A95F1F7000091
S11300F080E7D6DF85E38A95F1F700002A9A089510
S1130100BF92CF92DF92EF92FF920F931F93CF9300
S1130110DF93D82EC62EB42EF52EE22E81E0D8120F
S113012002C090E2C90EE5E3EA95F1F700002A98CF
S1130130F0E4FA95F1F78C2DB3DF85E38A95F1F7B6
S11301400000EE2021F1C4E0D1E00B2D1F2D2E2D57
S113015030E0F901EC5FFE4F7F01D1100BC0F0EAF3
S1130160CF1641F08FEF9CDF888385E38A95F1F702
S1130170000007C0F801808193DFF5E3FA95F1F7F9
S1130180000021960F5F1F4FCE15DF0531F72A9A25
S113019084E091E0DF91CF911F910F91FF90EF9058
S11301A0DF90CF90BF900895CF93DF93EC0120E0D0
S11301B0AC0161EE80E0A4DF25E0AE0160EA80E0FE
S11301C09FDF2FEF83EF91E0215080409040E1F7D3
S11301D000C00000299A2FEF83EF91E02150804066
S11301E09040E1F700C0000029988FE39CE9019753
S11301F0F1F700C00000DF91CF910895CF93DF9312
S11302001F92CDB7DEB78FE39CE90197F1F700C0E9
S113021000008EE1898321E0AE014F5F5F4F60E013
S113022081E06EDF8FE39CE90197F1F700C00000E5
S11302300F90DF91CF910895CF93DF931F92CDB7A5
S1130240DEB78FE39CE90197F1F700C00000198243
S113025021E0AE014F5F5F4F60E081E051DF8FE34B
S11302609CE90197F1F700C000000F90DF91CF9156
S11302700895F89484B7877F84BFE0E6F0E0808136
S11302808861808381E28083789480818064808324
S1130290089583B7817F846083BF83B7816083BF00
S11302A083B7816083BF889583B78E7F83BF83B70D
S11302B08E7F83BFE4E6F0E08081807180830895BF
S11302C0D8DFE7CF08955B9A20E52A95F1F75B988C
S11302D08FEF99EF20E0815090402040E1F700C07B
S11302E000000895CF92DF92EF92FF925F9A2FEF72
S11302F039E648E1215030404040E1F700C00000B9
S1130300E2DF60912A0170912B0180E090E0E9D155
S11303102AE63CE349EE52E450D120E030E0A90162
S1130320E8D06B017C018FEF90E722E08150904090
S11303302040E1F700C00000C6DF60912A017091FF
S11303402B0180E090E0CDD12AE63CE349EE52E473
S113035034D1A7019601CDD03FEF40E722E03150E0
S113036040402040E1F700C000005F9820E030E00A
S113037040E05FE344D289D1862FFF90EF90DF9075
S1130380CF900895AFDFE4E2F1E097E490838183B6
S11303901282CF0108950F931F93CF93DF9300D060
S11303A000D01F92CDB7DEB7809101019091020178
S11303B0019709F044C000E010E0809100018F5FD4
S11303C08F3118F48093000132C010920001DADFFB
S11303D0FC018081898381818A8382818B831C8251
S11303E01D820CDF1F5F75DECE010196DDDE2FEF6F
S11303F084ED92E0215080409040E1F700C000007D
S11304001B3068F02FEF8DE399E421508040904039
S1130410E1F700C000000F5F033030F410E087E024
S113042045DE85FFDFCF02C000E010E005DF48DFD6
S11304308091010190910201019709F4BECF80E0FF
S113044090E00F900F900F900F900F90DF91CF914D
S11304501F910F9108951F920F920FB60F921124BE
S11304608F939F93EF93FF9380912901882319F031
S1130470813051F01AC081E080932901E1E8F0E075
S113048080818260808311C010922901E1E8F0E04C
S113049080818D7F8083E4E8F0E080819181909376
S11304A02B0180932A0111821082FF91EF919F9179
S11304B08F910F900FBE0F901F9018951F920F925F
S11304C00FB60F9211248F939F9380910101909105
S11304D00201892B31F481E090E090930201809332
S11304E001019F918F910F900FBE0F901F9018954F
S11304F05058BB27AA270ED048C139D130F03ED17D
S113050020F031F49F3F11F41EF42EC10EF4E09557
S1130510E7FB24C1E92F4AD180F3BA1762077307B6
S11305208407950718F071F49EF562C10EF4E09506
S11305300B2EBA2FA02D0B01B90190010C01CA0199
S1130540A0011124FF27591B99F0593F50F4503E44
S113055068F11A16F040A22F232F342F4427585F36
S1130560F3CF469537952795A795F0405395C9F74E
S11305707EF41F16BA0B620B730B840BBAF0915006
S1130580A1F0FF0FBB1F661F771F881FC2F70EC0A5
S1130590BA0F621F731F841F48F487957795679578
S11305A0B795F7959E3F08F0B3CF9395880F08F061
S11305B09927EE0F9795879508950CD0E6C0DED065
S11305C040F0D5D030F021F45F3F19F0C7C051118D
S11305D010C1CAC0EBD098F39923C9F35523B1F3E2
S11305E0951B550BBB27AA2762177307840738F09E
S11305F09F5F5F4F220F331F441FAA1FA9F333D0FD
S11306000E2E3AF0E0E830D091505040E695001CB0
S1130610CAF729D0FE2F27D0660F771F881FBB1F6C
S1130620261737074807AB07B0E809F0BB0B802D46
S1130630BF01FF2793585F4F2AF09E3F510568F092
S11306408DC0D7C05F3FECF3983EDCF38695779579
S11306506795B795F7959F5FC9F7880F911D969594
S1130660879597F90895E1E0660F771F881FBB1FF0
S1130670621773078407BA0720F0621B730B840B9D
S1130680BA0BEE1F88F7E095089598D088F09F572D
S113069090F0B92F9927B751A0F0D1F0660F771FCA
S11306A0881F991F1AF0BA95C9F712C0B13081F0AA
S11306B09FD0B1E008959CC0672F782F8827B85F3A
S11306C039F0B93FCCF3869577956795B395D9F70B
S11306D03EF490958095709561957F4F8F4F9F4F15
S11306E00895E89409C097FB3EF490958095709521
S11306F061957F4F8F4F9F4F9923A9F0F92F96E96A
S1130700BB279395F695879577956795B795F111DE
S1130710F8CFFAF4BB0F11F460FF1BC06F5F7F4F7B
S11307208F4F9F4F16C0882311F096E911C077238D
S113073021F09EE8872F762F05C0662371F096E896
S1130740862F70E060E02AF09A95660F771F881F65
S1130750DAF7880F9695879597F9089597F99F6723
S113076080E870E060E008959FEF80EC0895002435
S11307700A941616170618060906089500240A9402
S113078012161306140605060895092E0394000C88
S113079011F4882352F0BB0F40F4BF2B11F460FF17
S11307A004C06F5F7F4F8F4F9F4F089557FD905840
S11307B0440F551F59F05F3F71F04795880F97FB21
S11307C0991F61F09F3F79F08795089512161306DB
S11307D01406551FF2CF4695F1DF08C0161617060A
S11307E01806991FF1CF869571056105089408953F
S11307F0E894BB2766277727CB0197F908950BD098
S1130800C4CFB5DF28F0BADF18F0952309F0A6CFDE
S1130810ABCF1124EECFCADFA0F3959FD1F3950F90
S113082050E0551F629FF001729FBB27F00DB11D70
S1130830639FAA27F00DB11DAA1F649F6627B00D00
S1130840A11D661F829F2227B00DA11D621F739FE9
S1130850B00DA11D621F839FA00D611D221F749FF7
S11308603327A00D611D231F849F600D211D822F3E
S1130870762F6A2F11249F5750408AF0E1F0882385
S11308804AF0EE0FFF1FBB1F661F771F881F915092
S11308905040A9F79E3F510570F060CFAACF5F3F4B
S11308A0ECF3983EDCF3869577956795B795F795C5
S11308B0E7959F5FC1F7FE2B880F911D969587954D
S10B08C097F90895F894FFCFA5
S10708C864010000C3
S9030000FC
